:4000000000100020110000008D0600008D06000010B500F043FBC04610B51222164B1A60302000F077FC154A154B1A60154A164B1A60164B164A1A60E8214901154A116008
:40004000154A1A6080221206144B1A608022D202134B1A604122134B1A60013A124B1A601249072000F08EFB072000F075FB00220F4B1A6010BDC046300010400600008028
:4000800004010B40007FBB00040301400000014041FF00800003014040FF008008010B4000010B404C01014008010140690A00000C020B4010B572B600240FE02648620056
:4000C000131959000B00411889881A5AC31858880004104300F0D4FA0134E4B2012CEDD91D490C311D484C3000F0A0FA03211C4B1960EE2212021B4B1A60EE221A4B1A60FF
:4001000099231B04194A1360A820C003184A1060184A1360184803783C22934314221343DBB20370154A107816230343DBB213700122134B1A600532124B1A60D8221201B5
:40014000114B1A60114B19602422114B1A60FFF763FF00F085FA10BD38150000B815000000000240000302400004024000500F4008500F4030500F4001700F4000700F40A9
:40018000000004400800044008030440000404400804044010B5064C2378002B07D1054B002B02D0044800E000BF0123237010BD480100200000000034150000084B10B58D
:4001C000002B03D00749084800E000BF07480368002B00D110BD064B002BFBD09847F9E7000000004C01002034150000C000002000000000F0B5012407E065006E1E075D9D
:400200008F55165D4E550134E4B29C42F5D3F0BD43781B02027813430B82C3781B02827813434B8243791B02027913438B82C3791B0282791343CB82437A1B02027A1343A2
:400240000B83C37A1B02827A13434B83437B1B02027B13438B83C37B1B02827B1343CB83437C1B02027C13430B84C37C1B02827C13434B84437D1B02027D13438B84C37DFF
:400280001B02827D1343CB84427E2823CA54704710B543781B02027813434B8582782C23CA540323C3561C0102790F2313402343CB850523C3561A0103791B0913430B8604
:4002C000062282563223CA5410BDC04600280BD04368002B0BD08368002B0BD0C368002B0BD10120404209E00120404206E00120404203E00120404200E000207047C046E6
:40030000F0B583B0019115001F000122002100F023FD002400260AE00121019800F0AAFD285D012100F0A6FD46B20134E4B2A3B2BB42F1D3012000F071FD300003B0F0BD23
:40034000F8B504000D0017001E000122002100F003FD0121280000F08DFD01220121200000F0FAFD0024002511E0731E9C4206D039190122002000F0A1FD45B205E0391976
:400380000122012000F09AFD45B20134E4B2A3B2B342EAD3012000F041FD2800F8BDC04610B501F067F810BDF0B583B00400019116001F001800FFF789FF002810D1BB7820
:4003C000012B03D080235B421C43E4B27D6878783300019A2100A847002801D00420404203B0F0BD30B589B005001A22002101A801F08BF82B001A2201A98820FFF7D4FFF8
:40040000041E0FD1290001A8FFF702FF2B00072201A9E120FFF7C8FF041E03D1290001A8FFF736FF200009B030BDC046F0B587B005000F0014001E000A2A00D90A243000E9
:40044000FFF744FF00282CD1002D2DD0002F2ED0002C2FD03A7801AB1A70B378012B08D10AE0AB1819787F20014019700132D2B200E000229442F4D8012C09D923003A0016
:4004800001A92800FFF7B6FE6400013CA3B200E0A3B2B4687078297801AAA04700280ED00BE0012040420AE00120404207E00120404204E00320404201E00420404207B0EC
:4004C000F0BDC04630B583B00500E0226B46DA7100226B469A71B6326B465A71FFF7F6FE002828D12B0001226946053168460730FFF79CFF00281ED1052400E01C000220DA
:40050000EB6898472B00012269460631F320FFF74BFF002808D1631EDBB2002C04D06A4606321278D207E9D46B4606331B78DB0701D50620404203B030BDC04670B582B011
:40054000060000226B46DA71FFF7C0FE041E1FD025E03300012269460731D020FFF724FF041E0FD16B4607331B78602B0AD133703000FFF7A7FF041E0DD13000FFF732FF9B
:40058000040008E00120F3689847013DEDB200E00525002DDDD1002D01D102246442200002B070BD10B50F4C76236370753BA3700D4A62600D4AA2600D4AE2600D498B70BD
:4005C00005220A70033A4A700232CA700B7120003830013200F090FF2000FFF7AFFFC0B210BDC046980100204103000001030000A1030000D801002010B562B600F09CFA35
:400600000948FFF7CFFF01220021702000F0A4FB0121062000F02EFC0A2000F0FFFB00F0CFFC00F03BFDFEE798010020F0B50025002711E0BB00C658F3B2FF22964308E009
:400640006A008A181478A419527822700135013BDBB2002BF4D10137062FEBD9F0BDC0460323044A1360044A13600022034B1A607047C0463000304030003140000E3F40D9
:4006800010B50A00002100F040FF10BD10B500F007FF03680C2B00D1FEE7FEE770B50F4E0F4D13E029686B68AC68002202E001C901C30432A242FAD1E868002202E0002121
:4006C00002C304328242FAD11035013E002EE9D100F0ECFEFFF790FFFEE7C04601000000F016000010B50E4A136801218B43136000230AE0032B03D89A000A49505800E02D
:4007000009489900094A885001332F2BF2D9FFF7D1FC034A116801230B43136010BDC04600001040000000008D06000000000020024A1168024B0B4013607047000022401E
:40074000FFFFFFBF034B18688023DB05184000D001207047000022401F2318401E3B8340014A13607047C04600E100E01F2318401E3B8340014A13607047C04680E100E0A6
:4007800001BE704770B504000D001F2802D90020FFF7F6FF1034A40080239B059C4664442068256070BDC04670B504000E00032902D90020FFF7E4FF1F2C02D90020FFF7F8
:4007C000DFFF03252540ED00063500F082FCA408A400074B9C46644421680323AB4099430B003100A9401943216000F076FC70BD00E400E010B5040006E0084B586800F04F
:400800005FFC074B9C46644480231B029C42F4D8024B9868604300F053FC10BDC40000200080FFFF30B583B000F0C8F800285AD000F04FFC040000230AE02C4A12683F2103
:400840000A402B49C95C8A4201D1033303E001332D2BF2D90323274A1268D20606D1254802681F218A4313390A430260224A1168224A0A40224959438020C0018446614476
:40088000C90B01394905490D0A43A021490311430800192B02D81B4B1A430EE01A4A9A1812781A3B1249C9183023CB5CD318FF2B00D9FF239B0502001A430F4B1A60134D13
:4008C0002B680193302000F00BFC114A13688021C9050B4313601420FFF78CFF019B2B60200000F0FAFB03B030BDC0462CFF0B402016000034FF0B400800224000F800C0B1
:4009000040420F000000D43FCDF1FF0F300010400000224030B587B0040000F0DAFB0500FFF710FF002803D0FFF702FF012100E00021104B1B6800930F4B1B680193033C40
:400940000E4B1B5D02930E4B1B68039304AA0D4B04936B4605930C4B1A600C480C4A10601B68012901D1FFF75DFF280000F0B5FB07B030BD08010B4000010B4020160000BB
:4009800030001040B6EA000008001040170000800400104010B5034B1B7B584300F090FB10BDC046C4000020034B1868C0231B02184000D00120704700010B40034B1B6873
:4009C000002B01DA012000E0002070470000224010B500F07EFB044A1368C02109020B43136000F07AFB10BD00010B4010B500F070FB08490A68084B1A408024E401224317
:400A00000A600A6813408022120213430B6000F064FB10BD00010B40FF3FFFFF70B5050000F057FB0400FFF7BFFF002803D0FFF7DDFF012100E0002108482840084A1568D1
:400A4000084B2B40184310601368012901D1FFF7BFFF200000F041FB70BDC0460404040010020B40FBFBFBFF10B5244B1B685B0715D5234B5B685B070ED5224B596A04201D
:400A800001401F4C62688A4362605A6A82435A629B69002B00D098470420FFF7BFFF174B1B685B0518D5164B5B685B0510D5154B596A8022D2001140114842688A43426041
:400AC000596A114A0A405A62DB69002B00D098478020C000FFF7A2FF084B1B685B030CD5074B5B685B0304D5064B1B6A002B00D098478020C002FFF791FF10BD10020B409A
:400B0000D800002064010020FFFBFFFF10B50820FFF722FE10BDC04610B500F01DF810BD10B5044A1368802109060B431360FFF7EDFF10BD0000244010B5064B1B78002BED
:400B400004D1FFF7E9FF0122024B1A70FFF7E8FF10BDC0468C01002010B50024184B1C60184A194B1A60194B194A1360194A1460194A1460194A1360194B1C600820FFF7A7
:400B8000F5FD03210820FFF70FFE16490820FFF7F9FD154B1C60154B1C60154B1C60154B1C60154B1C60154B1C601022144B1A70144B1C80144B1C60144B1C6010BDC046BA
:400BC00000002440FF0800806000244007010080000324400403244010032440000224400402244035110000C80E2440880E2440480F2440080F2440C80F2440880F2440BF
:400C0000E4010020EA010020EC010020F801002010B50E4A13685B005B08136000230C490B600C490B600C4804680C49214001600B490B600B490B6010210B4B1970136832
:400C4000802109060B43136010BDC04600002440680024406C00244060002440FF5CFFFF880F2440C80F2440E401002010B504000368002B09D00120FFF78CFE2368013B38
:400C80002360002B03D0002003E0002001E08020000610BD10B5002839DBC023034208D00022284B1A601032274B1A70002310243DE0C3070FD5244B1B781B072BD5234B3A
:400CC0001B685B0001D5002300E0012310211E4A117001242BE0C30520D4830722D4C30605D51022184B1A70002300241FE0164B1B781B0719D5144B1B78DB0701D5252296
:400D000000E02422104B1A70002300240FE00123802424060BE00123012408E001238024640004E00023022401E000230024012B02D1FFF76DFF02E0054A064B1A60200066
:400D400010BDC04668002440E40100206000244017030000000F244070B582B004000D001600244B1B78102B40D10820FFF7FEFC214B1B68DB0734D4FA239B005E430196D1
:400D800000221E4B1A601E4A1E4B1A601E4A1F4B1A606400FF231C40002D03D12422154B1A7004E02522134B1A7001231C43184B1C600222174B1A60124B1C680823FF33D1
:400DC00020001840144B1B68C02423401843040001A8FFF74BFF2043EED0FFF75BFF040000E008240820FFF7B7FC00E00424200002B070BDE401002064002440080F244069
:400E000017030000000F2440ED0F0000C00F24404002244068002440400F244010B582B0104B1B789B061AD5FA239B00584301900D4B1B689B0601D5182200E010220B4B84
:400E40001A600B4B18681223FF331840040001A8FFF70CFF2043F4D0FFF71CFF00E0042002B010BDE40100206400244068002440000F244010B582B00D4B1B789B0613D583
:400E8000FA239B00594301910A4B18600A4B18680823FF331840040001A8FFF7E7FE2043F4D0FFF7F7FE00E0042002B010BDC046E401002040022440000F2440F0B583B0DC
:400EC00004000D00164B1B789B0626D5FA239B005A430192134B18680223FF3318400700114B1B6804261E4001A8FFF7BFFE384333000343EED0002E05D00C4B1B682B70E8
:400F00000B4A094B1A60FFF7C5FE002806D1002C04D10422074B1A6000E0042003B0F0BDE4010020000F2440C00F244040032440ED0F000068002440054B1B6820221340FD
:400F400000D0082301221343024A13607047C046640024406800244010B582B0154B1B789B0623D5FA239B005A4301924000FF240440002903D124220E4B1A7004E025228A
:400F80000C4B1A7001231C43FFF7D6FF0A4B1C600A4B18680823FF331840040001A8FFF765FE2043F4D0FFF775FE00E0042002B010BDC046E401002040022440000F24406A
:400FC000034A117880235B420B43DBB21370704771000F40014B18807047C04600100F40014B18807047C04680100F40014B18807047C04640100F40014B18707047C046B5
:4010000081000F40014B1878C0B2704761000F40014B188880B27047A0100F4010B501E0FFF7F6FFFFF7EEFFC306F9D410BDC04670B517490B783F22934309221343DBB22D
:401040000B7014490A7801231A43D2B20A70124C22781343DBB22370FA25AD002800FFF7B9FF2800FFF7BCFFFA204000FFF7BEFF0020FFF7C1FF00F02CF822781023134394
:40108000DBB2237000F029F8FFF7C8FF70BDC04671000F4090000F4091000F4010B5064B1B78002B04D1FFF7C3FF0122024B1A70FFF786FF10BDC046940100200000000032
:4010C0000230800803D00138FDD1C046C046C0467047EFF3108072B6704780F31088704770B50400FFF7F5FF0500102C05D8104A136803218B43136016E0202C07D80C499F
:401100000B6803229343023A13430B600CE0302C07D807490B6803229343013A13430B6002E00020FFF72CFB2800FFF7D6FF70BD3000104010B5AF4B1B68002B00D0984788
:40114000AD4B1B68DB0702D50022AC4B1A60AC4B1B789B0628D5AB4B1B68DB0507D5AA4A1188C0239B000B431380012300E00023A44A1268D20706D5A34A118890239B0048
:401180000B4313800123002B0FD09D4A1278D20701D5012200E002229B49088802430A800021974A117000E00023954A1278920600D417E1934A1268D20611D51022934B1E
:4011C0001A608F4B1B78DB0701D5012300E002238D4A11880B4313801022894B1A7007E1874A1278120720D5864A126892070AD50222864B1A60844A118888239B000B43C9
:401200001380012311E07E4A1278D20703D525217B4A117009E02421794A11707C4A1268002A02D014397B4A1160754A1278520700D4AEE0724A1278D20749D5764A1268CB
:40124000120727D5754A1268754909681F240C40744909686418141B082C09D8002C16D1714A1168714B0B401360012308340EE008240CE06B4A11686D48006841186D48F4
:401280000068C0B20870116801311160013C002CF0D119E0604A1268520715D5614A116863480068411863480068C0B208701168013111601168594A1268914203D204212A
:4012C0005D4A116000E001235C495D4A116060E04C4A1268920726D502224C4B1A6059490B681D321A40096880231B020B4000D001239B18544A1168CB1A13601268534B94
:401300001A60414A118884239B000B431380504B1A68802149020A431A6019684D4A0A401A60012335E04C4A1268D2061ED427E0454A1168364A126891421DD2344A12686A
:40134000013A414909688A4204D1402243490A6030490A603C4A11684148006841180978C9B240480160116801311160354A12681F210A40082ADBD11021384A116008E0A4
:40138000354A1268520604D52F4B1A682F4B1A600123002B2CD0244A1168244B0B4013600023314A13601B4A1360304B1B789B070ED5134B1B78DB0701D5092300E00A2356
:4013C000114A11880B43138060220D4B1A700FE0274B1B689B0601D5182200E01022164B1A6005E0064B1B78DB0601D4FFF710FC10BDC046900100208C0E2440880E244035
:40140000E40100200C0F2440EA010020000F2440FC010020880F2440CC0F2440F401002008032440EC01002060002440FFFEFFFF000200204003244068002440ED0F000072
:40144000C00F24400802244004020020F801002004022440FFFFFEFF8C0F2440800F2440F001002040022440C80F2440E8010020640024407FB5094B02A9186800F04DF88A
:40148000431C09D0029A039B944663441800049BC0180193059BC01807B000BD40010020014B18687047C046400100200E4B70B500251E000D4CE41AA410A54204D0AB00AD
:4014C000F35898470135F8E700F000F9084B00251E00084CE41AA410A54204D0AB00F35898470135F8E770BDD8160000D8160000D8160000E0160000002310B59A4203D0FF
:40150000CC5CC4540133F9E710BD03008218934202D019700133FAE7704710B5080000F001F810BD58220120014B40421A607047080200200000000000300F4000040040E7
:401540000F400004810D4030410449FF4AFF4BFF4DA04F0450185A045F01604062C06440654066C068C06AC06CC06EC08202830196069E0CAD01AE01B008B101B201B40239
:40158000B604BE10C030C104C5D0C602C710C826C9FFCAFFCBFFCDAFCE0FCF04D018D280D405D804D904DA04DB04DF01E040E2C0E440E540E6C0E8C0EAC0ECC0EEC00680F9
:4015C0000D080F0217401C101D081E0A1F0227802F023F0240104280450846804F01568057015E085F817740C010C2A0C480CA10CE80D0C3D6D0B601EA105004D420B40493
:401600000101100101000F403C300F401C310F4002330F4002400F4001410F4002600F40030405060708090A0B0C0E0F101112131415161718191B1C1D1E1F202122232528
:40164000262728292A2B2E2F3031323334350000EEDBC9B9AA9B8E82766B60564D443B332C241D17100A0443000000000000000000000000000000000000000000000000D0
:40168000000000000000000000000000000000000000000000000000000000000000000000000000000000000000000000000000000000000000000000000000000000002A
:4016C000000000000000000000000000F8B5C046F8BC08BC9E467047BD010000E5060000F8B5C046F8BC08BC9E4670479501000000170000C000002088000000C8000000D8
:4017000000000000010000000000C05D80BB000030000000006CDC02F000000004040400000000006C1600008C160000AC16000000000000000000000000000000000000F4
:4017400067160000000000000000000000000000000000000000000000000000000000000000000000000000000000000000000000000000000000000000000000000000EC
:40178000E000002000000000000000000000000000000000000000000000000000000000000000000000000000000000000000000000000000000000000000000000000029
:4017C00000000000000000000000000000000000000000000000000000000000000000000000000000000000000000000000000000000000000000000000000000000000E9
:4018000000000000000000000000000000000000000000000000000000000000000000000000000000000000000000000000000000000000000000000000000000000000A8
:401840000000000000000000000000000000000000000000000000000000000000000000000000000000000000000000000000000000000000000000000000000000000068
:401880000000000000000000000000000000000000000000000000000000000000000000000000000000000000000000000000000000000000000000000000000000000028
:0200000490303A
:02000000337655
:0200000490402A
:200000000000000000000000000000000000000000000000000000000000000000000000E0
:0200000490501A
:0C0000000002112411A10001112B451772
:0200000490600A
:0100000001FE
:00000001FF